:020000040800F2
:100000000050002069020008050200080D020008E7
:10001000150200081D02000825020008000000006B
:100020000000000000000000000000002D02000899
:1000300039020008000000004502000851020008D3
:10004000B1020008B1020008B1020008B1020008C4
:10005000B1020008B1020008B1020008B1020008B4
:10006000B1020008B1020008B1020008B1020008A4
:10007000B1020008B1020008B1020008B102000894
:10008000B1020008B1020008B1020008B102000884
:10009000B1020008B1020008B1020008B102000874
:1000A000B1020008B1020008B1020008B102000864
:1000B000B1020008B1020008B1020008B102000854
:1000C000B1020008B1020008B1020008B102000844
:1000D000B1020008B1020008B1020008B102000834
:1000E000B1020008B1020008B102000800000000DF
:1000F0000000000000000000000000000000000000
:0C01000000000000000000005FF808F1A3
:10010C0010B5054C237833B9044B13B10448AFF345
:10011C0000800123237010BD0400002000000000AB
:10012C002003000808B5034B1BB103490348AFF388
:10013C00008008BD0000000008000020200300081B
:10014C0080B485B000AF284A3B4607CA03C31A8067
:10015C000023FB60254B9B69244A43F00403936105
:10016C00224B9B69214A43F008039361204B4FF0CB
:10017C0022321A601F4B1B681E4A23F00F031360B8
:10018C001C4B1B681B4A43F008031360194BDB68BC
:10019C00184A43F00103D360154B0022DA603A464B
:1001AC00FB6813441A78124BDA60124B9B6803F00D
:1001BC000103002BF9D100BF0E4B9B6803F0010328
:1001CC00002BF9D0FB680133FB60FB680A2B01D1D3
:1001DC000023FB60064B0022DA603A46FB681344AE
:1001EC001A78034BDA60E0E738030008001002408D
:1001FC0000080140000C014080B400AF00BFFDE7D7
:10020C0080B400AF00BFFDE780B400AF00BFFDE7D6
:10021C0080B400AF00BFFDE780B400AF00BFFDE7C6
:10022C0080B400AF00BFBD4680BC704780B400AF47
:10023C0000BFBD4680BC704780B400AF00BFBD4658
:10024C0080BC704780B500AF00F02EF800BF80BDB9
:10025C0080B400AF00BFBD4680BC7047FFF7F8FF0D
:10026C000B480C490C4A002302E0D458C450043308
:10027C00C4188C42F9D3094A094C002301E01360DD
:10028C000432A242FBD300F021F8FFF759FF70476C
:10029C0000000020040000204C0300080400002093
:1002AC0024000020FEE7000080B400AF054B1B7853
:1002BC001A46054B1B681344034A136000BFBD4626
:1002CC0080BC7047000000202000002070B5002684
:1002DC000C4D0D4C641BA410A64209D100F01AF869
:1002EC0000260A4D0A4C641BA410A64205D170BD11
:1002FC0055F8043B98470136EEE755F8043B984710
:10030C000136F2E7440300084403000844030008E4
:10031C0048030008F8B500BFF8BC08BC9E467047FF
:0C032C00F8B500BFF8BC08BC9E46704746
:0C0338003F065B4F666D7D077F6F000085
:04034400310100087B
:040348000D0100089B
:04034C0001000000AC
:040000050800026984
:00000001FF
